:020000040800F2
:10000000000001207D160008591400085B14000848
:100010005D1400085F14000861140008000000006F
:100020000000000000000000000000006314000851
:100030006514000800000000671400086914000837
:10004000CD160008CD160008CD160008CD16000804
:10005000CD160008CD160008CD160008CD160008F4
:10006000CD160008CD160008CD160008CD160008E4
:10007000CD160008CD160008CD160008CD160008D4
:10008000CD160008CD160008CD16000800000000AF
:10009000000000000000000000000000CD16000875
:1000A000CD160008CD16000871140008CD16000802
:1000B000CD160008CD160008CD160008CD16000894
:1000C000CD160008CD160008CD160008CD16000884
:1000D000CD160008CD160008CD160008000000005F
:1000E000CD160008CD160008CD160008000000004F
:1000F000000000000000000000000000CD16000815
:1001000000000000CD160008CD160008CD1600082E
:1001100000000000000000000000000000000000DF
:1001200081140008CD160008CD160008CD16000871
:10013000CD160008000000000000000000000000D4
:100140000000000000000000000000009114000802
:10015000CD160008CD160008CD160008CD160008F3
:10016000CD160008CD1600080000000000000000B9
:10017000000000000000000000000000000000007F
:1001800000000000A11400080000000000000000B2
:04019000CD16000880
:1001C00010B5054C237833B9044B13B10448AFF391
:1001D00000800123237010BD580A00200000000099
:1001E000F8EF000808B5034B1BB103490348AFF310
:1001F000008008BD000000005C0A0020F8EF000845
:1002000053B94AB9002908BF00281CBF4FF0FF317D
:100210004FF0FF3000F074B9ADF1080C6DE904CE79
:1002200000F006F8DDF804E0DDE9022304B07047D1
:100230002DE9F047089E0D4604468846002B4DD117
:100240008A42944668D9B2FA82F252B101FA02F3B4
:10025000C2F1200120FA01F10CFA02FC41EA030884
:1002600094404FEA1C45210CB8FBF5FE1FFA8CF7B1
:1002700005FB1E8341EA03430EFB07F199420BD9AC
:100280001CEB03030EF1FF3080F01E81994240F217
:100290001B81AEF1020E63445B1AA4B2B3FBF5F00E
:1002A00005FB103344EA034400FB07F7A7420AD9D1
:1002B0001CEB040400F1FF3380F00881A74240F2F8
:1002C000058164440238E41B40EA0E4000211EB15F
:1002D000D4400023C6E90043BDE8F0878B4208D92B
:1002E000002E00F0EE800021C6E900050846BDE8BA
:1002F000F087B3FA83F100294AD1AB4202D382429C
:1003000000F2F980841A65EB030301209846002E61
:10031000E2D0C6E90048DFE702B9FFDEB2FA82F2B6
:10032000002A40F09180A1EB0C054FEA1C471FFA10
:100330008CFE0121B5FBF7F307FB1350250C45EAB2
:1003400000450EFB03F0A84208D91CEB050503F19C
:10035000FF3802D2A84200F2CB8043462D1AA4B245
:10036000B5FBF7F007FB105544EA05440EFB00FE11
:10037000A64508D91CEB040400F1FF3502D2A645BE
:1003800000F2BB802846A4EB0E0440EA03409EE73F
:10039000C1F120078B4022FA07FC4CEA030C20FA3B
:1003A00007F405FA01F31C43FD404FEA1C4900FA2B
:1003B00001F3B5FBF9F8200C1FFA8CFE09FB185568
:1003C00040EA054508FB0EF0A84202FA01F20BD9FB
:1003D0001CEB050508F1FF3A80F08880A84240F246
:1003E0008580A8F1020865442D1AA4B2B5FBF9F086
:1003F00009FB105544EA054500FB0EFEAE4508D941
:100400001CEB050500F1FF346CD2AE456AD9023809
:10041000654440EA0840A0FB0294A5EB0E05A54206
:10042000C846A64656D353D05EB1B3EB080265EB7F
:100430000E0505FA07F722FA01F3CD401F43C6E97E
:1004400000750021BDE8F087C2F1200320FA03F116
:100450000CFA02FC25FA03F395400D434FEA1C47C2
:100460001FFA8CFEB3FBF7F107FB11302B0C43EAAC
:10047000004301FB0EF0984204FA02F408D91CEB89
:10048000030301F1FF382FD298422DD9023963447A
:100490001B1AADB2B3FBF7F007FB103345EA034577
:1004A00000FB0EF3AB4208D91CEB050500F1FF3849
:1004B00016D2AB4214D902386544ED1A40EA014124
:1004C00038E73146304607E78646E5E61846FAE65D
:1004D0004B45A9D2B9EB020864EB0C0E0138A3E737
:1004E0004046EAE7204694E74146D1E7D0467BE71D
:1004F000023B654432E7084609E76444023842E7B4
:10050000704700BF844641EA000313F003036DD136
:10051000403A41D351F8043B40F8043B51F8043BC6
:1005200040F8043B51F8043B40F8043B51F8043BCD
:1005300040F8043B51F8043B40F8043B51F8043BBD
:1005400040F8043B51F8043B40F8043B51F8043BAD
:1005500040F8043B51F8043B40F8043B51F8043B9D
:1005600040F8043B51F8043B40F8043B51F8043B8D
:1005700040F8043B51F8043B40F8043B51F8043B7D
:1005800040F8043B51F8043B40F8043B51F8043B6D
:1005900040F8043B403ABDD2303211D351F8043B0D
:1005A00040F8043B51F8043B40F8043B51F8043B4D
:1005B00040F8043B51F8043B40F8043B103AEDD2BC
:1005C0000C3205D351F8043B40F8043B043AF9D20D
:1005D000043208D0D2071CBF11F8013B00F8013BE0
:1005E00001D30B8803806046704700BF082A13D3ED
:1005F0008B078DD010F003038AD0C3F10403D21A05
:10060000DB071CBF11F8013B00F8013B80D331F838
:10061000023B20F8023B7BE7043AD9D3013A11F8B8
:10062000013B00F8013BF9D20B7803704B78437023
:100630008B78837060467047000000000000000067
:1006400090F800F06DE9024520F007016FF0000C12
:1006500010F0070491F820F040F049804FF00004BA
:100660006FF00700D1E9002391F840F000F1080095
:1006700082FA4CF2A4FA8CF283FA4CF3A2FA8CF3CD
:100680004BBBD1E9022382FA4CF200F10800A4FA34
:100690008CF283FA4CF3A2FA8CF3E3B9D1E9042388
:1006A00082FA4CF200F10800A4FA8CF283FA4CF3BF
:1006B000A2FA8CF37BB9D1E9062301F1200182FA79
:1006C0004CF200F10800A4FA8CF283FA4CF3A2FA7F
:1006D0008CF3002BC6D0002A04BF04301A4612BA8D
:1006E000B2FA82F2FDE8024500EBD2007047D1E990
:1006F000002304F00305C4F100004FEAC50514F01F
:10070000040F91F840F00CFA05F562EA05021CBFEF
:1007100063EA050362464FF00004A9E70000000009
:1007200001F0FF01102A2BDB10F0070F08D010F8A2
:10073000013B013A8B422DD010F0070F42B3F6D1A6
:10074000F0B441EA012141EA014122F007047FF0BF
:1007500000070023F0E80256083C85EA010586EA16
:10076000010685FA47F5A3FA87F586FA47F6A5FA52
:1007700087F68EB9EED1F0BC01F0FF0102F007025E
:1007800032B110F8013B013A83EA010313B1F8D109
:100790000020704701387047002D06BF35460338EA
:1007A000073815F0010F07D1013015F4807F02BF23
:1007B000013015F4C03F0130F0BC0138704700BF74
:1007C00081F0004102E000BF83F0004330B54FEA02
:1007D00041044FEA430594EA050F08BF90EA020F6F
:1007E0001FBF54EA000C55EA020C7FEA645C7FEA02
:1007F000655C00F0E2804FEA5454D4EB5555B8BF25
:100800006D420CDD2C4480EA020281EA030382EA95
:10081000000083EA010180EA020281EA0303362D27
:1008200088BF30BD11F0004F4FEA01314FF4801CFA
:100830004CEA113102D0404261EB410113F0004F0C
:100840004FEA03334CEA133302D0524263EB4303C3
:1008500094EA050F00F0A780A4F10104D5F1200E61
:100860000DDB02FA0EFC22FA05F2801841F10001BC
:1008700003FA0EF2801843FA05F359410EE0A5F190
:1008800020050EF1200E012A03FA0EFC28BF4CF0C1
:10089000020C43FA05F3C01851EBE37101F0004577
:1008A00007D54FF0000EDCF1000C7EEB00006EEB84
:1008B0000101B1F5801F1BD3B1F5001F0CD349080E
:1008C0005FEA30004FEA3C0C04F101044FEA445265
:1008D00012F5800F80F09A80BCF1004F08BF5FEAEC
:1008E000500C50F1000041EB045141EA050130BDCC
:1008F0005FEA4C0C404141EB0101013C28BFB1F5DE
:10090000801FE9D291F0000F04BF01460020B1FA28
:1009100081F308BF2033A3F10B03B3F120020CDAFB
:100920000C3208DD02F1140CC2F10C0201FA0CF0D9
:1009300021FA02F10CE002F11402D8BFC2F1200C3E
:1009400001FA02F120FA0CFCDCBF41EA0C019040F4
:10095000E41AA2BF01EB0451294330BD6FEA04043D
:100960001F3C1CDA0C340EDC04F11404C4F1200228
:1009700020FA04F001FA02F340EA030021FA04F33A
:1009800045EA030130BDC4F10C04C4F1200220FA91
:1009900002F001FA04F340EA0300294630BD21FACF
:1009A00004F0294630BD94F0000F83F4801306BF95
:1009B00081F480110134013D4EE77FEA645C18BF89
:1009C0007FEA655C29D094EA050F08BF90EA020F20
:1009D00005D054EA000C04BF1946104630BD91EA18
:1009E000030F1EBF0021002030BD5FEA545C05D11B
:1009F0004000494128BF41F0004130BD14F580045A
:100A00003CBF01F5801130BD01F0004545F0FE41CD
:100A100041F470014FF0000030BD7FEA645C1ABF02
:100A2000194610467FEA655C1CBF0B46024650EA39
:100A3000013406BF52EA033591EA030F41F4002165
:100A400030BD00BF90F0000F04BF0021704730B5EB
:100A50004FF4806404F132044FF000054FF00001C0
:100A600050E700BF90F0000F04BF0021704730B581
:100A70004FF4806404F1320410F0004548BF404256
:100A80004FF000013EE700BF42004FEAE2014FEAAB
:100A900031014FEA02701FBF12F07F4393F07F4F86
:100AA00081F06051704732F07F4208BF704793F089
:100AB0007F4F04BF41F40021704730B54FF460749C
:100AC00001F0004521F000411CE700BF50EA01029F
:100AD00008BF704730B54FF000050AE050EA010248
:100AE00008BF704730B511F0004502D5404261EBB8
:100AF00041014FF4806404F132045FEA915C3FF4F9
:100B0000D8AE4FF003025FEADC0C18BF03325FEA95
:100B1000DC0C18BF033202EBDC02C2F1200300FA46
:100B200003FC20FA02F001FA03FE40EA0E0021FA6B
:100B300002F11444BDE600BF70B54FF0FF0C4CF459
:100B4000E06C1CEA11541DBF1CEA135594EA0C0F0B
:100B500095EA0C0F00F0DEF82C4481EA030621EA46
:100B60004C5123EA4C5350EA013518BF52EA033581
:100B700041F4801143F4801338D0A0FB02CE4FF033
:100B80000005E1FB02E506F00042E0FB03E54FF063
:100B90000006E1FB03569CF0000F18BF4EF0010E5B
:100BA000A4F1FF04B6F5007F64F5407404D25FEA57
:100BB0004E0E6D4146EB060642EAC62141EA55510A
:100BC0004FEAC52040EA5E504FEACE2EB4F1FD0C4C
:100BD00088BFBCF5E06F1ED8BEF1004F08BF5FEACA
:100BE000500E50F1000041EB045170BD06F000467C
:100BF00046EA010140EA020081EA0301B4EB5C0429
:100C0000C2BFD4EB0C0541EA045170BD41F4801120
:100C10004FF0000E013C00F3AB8014F1360FDEBF45
:100C2000002001F0004170BDC4F10004203C35DA21
:100C30000C341BDC04F11404C4F1200500FA05F3A4
:100C400020FA04F001FA05F240EA020001F0004245
:100C500021F0004110EBD37021FA04F642EB0601BB
:100C60005EEA430E08BF20EAD37070BDC4F10C04E5
:100C7000C4F1200500FA04F320FA05F001FA04F2A9
:100C800040EA020001F0004110EBD37041F1000195
:100C90005EEA430E08BF20EAD37070BDC4F12005A0
:100CA00000FA05F24EEA020E20FA04F301FA05F208
:100CB00043EA020321FA04F001F0004121FA04F2B0
:100CC00020EA020000EBD3705EEA430E08BF20EA80
:100CD000D37070BD94F0000F0FD101F000464000BA
:100CE00041EB010111F4801F08BF013CF7D041EA3C
:100CF000060195F0000F18BF704703F00046520040
:100D000043EB030313F4801F08BF013DF7D043EA10
:100D10000603704794EA0C0F0CEA135518BF95EAC6
:100D20000C0F0CD050EA410618BF52EA4306D1D14D
:100D300081EA030101F000414FF0000070BD50EA6C
:100D4000410606BF1046194652EA430619D094EAF6
:100D50000C0F02D150EA013613D195EA0C0F05D1E0
:100D600052EA03361CBF104619460AD181EA030134
:100D700001F0004141F0FE4141F470014FF00000EC
:100D800070BD41F0FE4141F4780170BD70B54FF087
:100D9000FF0C4CF4E06C1CEA11541DBF1CEA135507
:100DA00094EA0C0F95EA0C0F00F0A7F8A4EB0504E9
:100DB00081EA030E52EA03354FEA013100F08880E0
:100DC0004FEA03334FF0805545EA131343EA1263A9
:100DD0004FEA022245EA111545EA10654FEA00265E
:100DE0000EF000419D4208BF964244F1FD0404F517
:100DF000407402D25B084FEA3202B61A65EB030573
:100E00005B084FEA32024FF480104FF4002CB6EB2F
:100E1000020E75EB030E22BFB61A754640EA0C00AF
:100E20005B084FEA3202B6EB020E75EB030E22BFEF
:100E3000B61A754640EA5C005B084FEA3202B6EB30
:100E4000020E75EB030E22BFB61A754640EA9C00EF
:100E50005B084FEA3202B6EB020E75EB030E22BFBF
:100E6000B61A754640EADC0055EA060E18D04FEA7D
:100E7000051545EA16754FEA06164FEAC30343EA1D
:100E800052734FEAC2025FEA1C1CC0D111F4801FEA
:100E90000BD141EA00014FF000004FF0004CB6E7E3
:100EA00011F4801F04BF01430020B4F1FD0C88BF82
:100EB000BCF5E06F3FF6AFAEB5EB030C04BFB6EB8D
:100EC000020C5FEA500C50F1000041EB045170BD80
:100ED0000EF0004E4EEA113114EB5C04C2BFD4EBAD
:100EE0000C0541EA045170BD41F480114FF0000E31
:100EF000013C90E645EA060E8DE60CEA135594EAAD
:100F00000C0F08BF95EA0C0F3FF43BAF94EA0C0FAF
:100F10000AD150EA01347FF434AF95EA0C0F7FF424
:100F200025AF104619462CE795EA0C0F06D152EA78
:100F300003353FF4FDAE1046194622E750EA41065C
:100F400018BF52EA43067FF4C5AE50EA41047FF46D
:100F50000DAF52EA43057FF4EBAE12E74FF0FF3CD2
:100F600006E000BF4FF0010C02E000BF4FF0010CA3
:100F70004DF804CD4FEA410C7FEA6C5C4FEA430C1C
:100F800018BF7FEA6C5C1BD001B050EA410C0CBF6B
:100F900052EA430C91EA030F02BF90EA020F0020CD
:100FA000704710F1000F91EA030F58BF994208BF34
:100FB00090422CBFD8176FEAE37040F001007047F1
:100FC0004FEA410C7FEA6C5C02D150EA013C07D148
:100FD0004FEA430C7FEA6C5CD6D152EA033CD3D093
:100FE0005DF8040B704700BF8446104662468C468D
:100FF0001946634600E000BF01B5FFF7B7FF0028C0
:1010000048BF10F1000F01BD4DF808EDFFF7F4FFE8
:101010000CBF012000205DF808FB00BF4DF808ED73
:10102000FFF7EAFF34BF012000205DF808FB00BF96
:101030004DF808EDFFF7E0FF94BF012000205DF8B8
:1010400008FB00BF4DF808EDFFF7CEFF94BF01206D
:1010500000205DF808FB00BF4DF808EDFFF7C4FF66
:1010600034BF012000205DF808FB00BF4FEA410CAF
:101070007FEA6C5C02D150EA013C0AD14FEA430C92
:101080007FEA6C5C02D152EA033C02D14FF00000CF
:1010900070474FF0010070474FEA410212F500120D
:1010A00015D211D56FF47873B3EB625212D94FEAAF
:1010B000C12343F0004343EA505311F0004F23FA99
:1010C00002F018BF404270474FF00000704750EAEE
:1010D000013005D111F0004008BF6FF000407047AB
:1010E0004FF00000704700BF00B585B000230093AB
:1010F0000193029303931D481D4A02604FF480320E
:1011000042604FF00072826001220261027680F834
:101110002030C36217498162C3600223C36180F833
:101120003020426100F0D4FBB0B9002300930123CA
:1011300001930323029369460C4800F0F5FB70B954
:1011400001230093022301936946084800F0ECFB59
:1011500040B905B05DF804FB00F0D8F8E5E700F011
:10116000D5F8EDE700F0D2F8F3E700BF740A0020ED
:10117000002001400100000F30B589B00023039327
:101180000493059306930793026803F1804303F5E4
:1011900090339A4201D009B030BD04460025019534
:1011A00003F58C335A6C42F480725A645A6C02F420
:1011B00080720192019A02951A6B42F001021A6341
:1011C0001B6B03F001030293029B0323039304931D
:1011D00003A9104800F09CFE0F48104B03604560C7
:1011E0008560C5604FF4806303614FF40063436121
:1011F0004FF4005383614FF48073C361056245620D
:1012000000F032FD18B9044BA3639C63C3E700F000
:101210007DF8F8E700000240BC0A0020106402409C
:1012200000B583B000210191094B1A6B42F4800292
:101230001A631B6B03F480030193019B0A46382059
:1012400000F050FC382000F085FC03B05DF804FB92
:101250000038024030B589B000240394049405940A
:101260000694079400941C4B1A6B42F004021A6314
:101270001A6B02F004020092009A01941A6B42F079
:1012800080021A631A6B02F080020192019A0294A2
:101290001A6B42F001021A631B6B03F00103029305
:1012A000029B0E4D01224FF40051284600F010FF22
:1012B00022464FF48041284600F00AFF4FF4C04315
:1012C0000393012304930594069403A9284600F090
:1012D0001FFE09B030BD00BF0038024000080240C8
:1012E000044B1A68C3B25360136813F0400FFBD06D
:1012F000704700BF680B002008B54FF4005102484A
:1013000000F0ECFE08BD00BF0008024072B6FEE728
:1013100000B595B03022002108A808F03BF9002361
:10132000039304930593069307930193214A116C49
:1013300041F080511164126C02F080520192019AC6
:1013400002931D4A136823F4404343F4004313609F
:10135000136803F440430293029B012308934FF464
:101360008033099302230E934FF480030F931923C4
:1013700010934FF4A873119304231293072313932C
:1013800008A801F05FFC80B90F23039302210491A8
:10139000002305934FF480520692079303A801F0AF
:1013A0009FFE20B915B05DF804FBFFF7AFFFFFF714
:1013B000ADFF00BF003802400070004008B500F0EB
:1013C000ADF9FFF7A5FFFFF745FFFFF729FFFFF78F
:1013D0008BFE00F0C7F807F075FC00F0FBF808483A
:1013E00008F0A0F9074808F033F90A2008F044F99A
:1013F0004FF4FA7000F0BEF907F0ACFCFCE700BF58
:1014000010F0000820F0000810B582B0002400940D
:10141000104B5A6C42F480425A645A6C02F4804277
:101420000092009A01941A6C42F080521A641B6C6C
:1014300003F080530193019B052000F041FB2246FD
:101440002146512000F04EFB512000F083FB02B0FA
:1014500010BD00BF00380240FEE7FEE7FEE7FEE7F2
:10146000FEE770477047704708B500F071F908BD96
:1014700008B5024801F00FFF08BD00BF200B002097
:1014800008B5024800F056FC08BD00BFBC0A0020A9
:1014900008B5024801F0EBFA08BD00BF9411002026
:1014A00070470120704708B507F08AFD16230360D6
:1014B0004FF0FF3008BD08B54FF0FF31FFF7F3FFE5
:1014C000FEE770B50C461646002506E0AFF3008037
:1014D000214601F8010B01350C46B542F6DB3046DA
:1014E00070BD70B50C461646002504E014F8010BDB
:1014F000FFF7F6FE0135B542F8DB304670BD4FF020
:10150000FF3070474FF400534B60002070470120BC
:10151000704700207047000010B503460C4A0D4983
:101520000D48006840B10C4800680344521A9342C9
:1015300006D8094A136010BD0748084C0460F2E75A
:1015400007F03EFD0C2303604FF0FF30F3E700BFD0
:1015500000000120000400001C0B0020E01400200B
:101560007047000008B50948094B036042F2331385
:10157000436000238360C722C2600361836101F07E
:1015800095FF00B908BDFFF7C1FEFBE7200B002067
:101590000048014002680E4B9A4200D0704700B5E7
:1015A00083B00022019203F57043596C41F480210D
:1015B00059645B6C03F480230193019B03211A207F
:1015C00000F090FA1A2000F0C5FA03B05DF804FBB1
:1015D0000048014008B50A480A4B03604FF4E13364
:1015E000436000238360C36003610C224261836116
:1015F000C36102F011F800B908BDFFF787FEFBE7F1
:10160000680B00200010014000B589B0002303934F
:101610000493059306930793026803F1804303F54F
:1016200088339A4202D009B05DF804FB0021019191
:1016300003F594335A6C42F010025A645A6C02F06B
:1016400010020192019A02911A6B42F001021A6390
:101650001B6B03F001030293029B4FF4C0630393DF
:1016600002230493032306930723079303A9024845
:1016700000F04EFCD7E700BF00000240DFF834D096
:101680000D480E490E4A002302E0D458C4500433DA
:10169000C4188C42F9D30B4A0B4C002301E01360B1
:1016A0000432A242FBD3FFF75BFF07F08FFCFFF78A
:1016B00085FE70470000012000000020580A00202D
:1016C00080020108580A0020E0140020FEE7000014
:1016D00010B504460E4B18784FF47A73B3FBF0F351
:1016E0000C4A1068B0FBF3F000F042FA68B90F2C16
:1016F00001D901200AE0002221464FF0FF3000F01E
:10170000F1F9054B1C60002000E0012010BD00BF76
:1017100004000020000000200800002008B50B4B4A
:101720001A6842F400721A601A6842F480621A6001
:101730001A6842F480721A60032000F0C1F9002098
:10174000FFF7C6FFFFF760FE002008BD003C024027
:10175000034A1168034B1B780B441360704700BFAA
:10176000AC0B002004000020014B1868704700BF3C
:10177000AC0B002038B50446FFF7F6FF0546B4F180
:10178000FF3F02D0044B1B781C44FFF7EDFF401BCA
:10179000A042FAD338BD00BF040000204A4B5A686B
:1017A00022F440325A605A6841680A435A6002681B
:1017B000536823F48073536002685368016943EAF5
:1017C000012353600268536823F04073536002683A
:1017D000536881680B4353600268936823F4006385
:1017E000936002689368C1680B439360826A374BC9
:1017F0009A4257D00268936823F07063936002683E
:101800009368816A0B4393600268936823F04053A6
:10181000936002689368C16A0B439360026893689F
:1018200023F00203936002689368017E43EA410358
:10183000936090F82030002B3FD00268536843F447
:10184000006353600268536823F460435360016887
:101850004B68426A013A43EA42334B600268D36AFA
:1018600023F47003D3620168CB6AC269013A43EA88
:101870000253CB620268936823F40073936002689A
:10188000936890F8301043EA4123936002689368AC
:1018900023F48063936002689368416943EA81237B
:1018A000936070470268936823F0706393600268E6
:1018B000936823F040539360B0E70268536823F4C1
:1018C00000635360CAE700BF002301400100000F1E
:1018D00038B310B50446036C43B1236C13F0100FFA
:1018E0000BD00120002384F83C3010BDFFF744FCEE
:1018F0000023636484F83C30EFE7236C23F48853BF
:1019000023F0020343F0020323642046FFF746FF5F
:1019100000206064236C23F0030343F0010323647D
:10192000E0E701207047000030B482B0002301934B
:1019300090F83C30012B00F0BB80012380F83C3054
:101940000B68092B41D90468E2689BB203EB43039F
:101950001E3B4FF0070C0CFA03F322EA0303E3608B
:101960000468E2680B8803EB43031E3B8D6805FAAD
:1019700003F31343E3604B68062B3DD80468626BA6
:1019800003EB8303053B4FF01F0C0CFA03F322EA31
:10199000030363630468626B4B6803EB8303053BDB
:1019A000B1F800C00CFA03F3134363630268414BC0
:1019B0009A4251D002683F4B9A4256D0002380F899
:1019C0003C30184602B030BC7047046822699BB2B4
:1019D00003EB43034FF0070C0CFA03F322EA030373
:1019E0002361046822690B8803EB43038D6805FAC1
:1019F00003F313432361BEE70C2B16D805682A6B4B
:101A000003EB8303233B1F2404FA03F322EA0303BB
:101A10002B6305682A6B4B6803EB8303233B0C881D
:101A200004FA03F313432B63C0E70568EA6A03EB88
:101A30008303413B1F2404FA03F322EA0303EB620E
:101A40000568EA6A4B6803EB8303413B0C8804FAA0
:101A500003F31343EB62A9E70B68122BAAD1164AD2
:101A6000536843F480035360A4E70B68103B012BD9
:101A7000A4D8114A536843F4000353600B68102B39
:101A80009CD10E4B1B6802F1467202F52E3202F217
:101A90008332A2FB03239B0C03EB83035B000193C4
:101AA00002E0019B013B0193019B002BF9D185E7EB
:101AB000022087E7002001400023014000000020B1
:101AC000074AD36823F4E0631B041B0C000200F4F4
:101AD000E060034343F0BF6343F40033D3607047D7
:101AE00000ED00E000B5194BDB68C3F30223C3F13E
:101AF000070CBCF1040F28BF4FF0040C03F1040ED7
:101B0000BEF1060F18D9033B4FF0FF3E0EFA0CFC56
:101B100021EA0C0199400EFA03F322EA0303194368
:101B200000280BDB0901C9B200F1604000F56140FB
:101B300080F800135DF804FB0023E5E700F00F00D8
:101B40000901C9B2024B1954F4E700BF00ED00E0EF
:101B500014ED00E0002807DB00F01F02400901231C
:101B60009340024A42F82030704700BF00E100E095
:101B70000138B0F1807F0BD24FF0E0235861054A65
:101B8000F02182F823100020986107221A61704723
:101B90000120704700ED00E010B40368D9B210399D
:101BA0000B4AA2FB014212090A4CA25CC2655F29E2
:101BB00008D923F47F7323F0030304338365806D16
:101BC00010BC704723F47F7323F003038365F6E7AB
:101BD000ABAAAAAA3CF00008836A826992B9012BD9
:101BE0000AD0022B02D00BB100207047C36A13F059
:101BF000807F28D100207047C36AB3F1C07F24D012
:101C000000207047B2F5005F09D0022B25D9032BC5
:101C100025D1C36A13F0807F23D100207047032BA6
:101C200003D8DFE803F01404140A00207047C36AE5
:101C300013F0807F0DD100207047C36AB3F1C07FDD
:101C400009D0002070470120704701207047012013
:101C50007047012070470120704701207047002025
:101C6000704701207047000070B50446FFF77CFD07
:101C7000002C5BD00546022384F83530002384F81D
:101C800034302268136823F00103136023681A6854
:101C900012F0010F0AD0FFF767FD431B052BF5D9A2
:101CA00020236365032084F8350070BD1A6820483E
:101CB00010406168A2680A43E1680A4321690A4347
:101CC00061690A43A1690A43E1690A43216A0A4337
:101CD0000243616A04291ED01A602668756925F0DE
:101CE0000705636A1D43042B07D1A36A1D43E36AFA
:101CF0001BB12046FFF770FF90B975612046FFF7D2
:101D00004BFFE26D3F239340836000206065012319
:101D100084F83530C9E7E16A206B01430A43DBE709
:101D200040236365012084F83500BEE70120BCE74D
:101D30003F8010F0F0B583B0044600230193724B4E
:101D40001D68724BA3FB0535AD0A876D3E68C26DF9
:101D500008239340334210D003681A6812F0040F2E
:101D60000BD01A6822F004021A60C26D0823934057
:101D7000BB60436D43F001034365E26D0123934073
:101D8000334209D02268526912F0800F04D0BB6040
:101D9000636D43F002036365E26D042393403342B5
:101DA00009D02268126812F0020F04D0BB60636D84
:101DB00043F004036365E26D10239340334224D063
:101DC0002268126812F0080F1FD0BB6023681A68DF
:101DD00012F4802F0DD01B6813F4002F04D1236C54
:101DE0009BB12046984710E0A36C73B120469847FA
:101DF0000BE01A6812F4807F03D11A6822F00802FF
:101E00001A60236C0BB120469847E26D2023934063
:101E1000334255D02268126812F0100F50D0BB60C8
:101E200094F83530DBB2052B0ED023681A6812F413
:101E3000802F33D01B6813F4002F2AD1636C002B42
:101E40003ED0204698473BE02268136823F01603F3
:101E500013602268536923F080035361236CA3B19C
:101E60002268136823F008031360E26D3F23934058
:101E7000BB60012384F83530002384F83430236DAF
:101E8000002B3FD0204698473CE0A36C002BE7D1C5
:101E9000EBE7E36BA3B12046984711E01A6812F410
:101EA000807F09D11A6822F010021A60012384F899
:101EB0003530002384F83430E36B0BB1204698476B
:101EC000636DFBB1636D13F0010F17D0052384F828
:101ED00035302268136823F001031360019B01333E
:101EE0000193AB4204D823681B6813F0010FF5D1AE
:101EF000012384F83530002384F83430E36C0BB1CF
:101F00002046984703B0F0BD00000020B5814E1B6D
:101F100000230F2B00F2D28070B582B060E085689C
:101F20005E000324B44025EA0405CC68B4402C4389
:101F30008460456825EA02054C68C4F300129A40A3
:101F40002A4342605AE0DC08083450F8246003F069
:101F5000070295000F22AA4026EA020E0A69AA404B
:101F600042EA0E0240F824205CE0042200E0002255
:101F700002FA0EF22A430234514D45F82420514A08
:101F800094686FEA0C0224EA0C054E6816F4801F70
:101F900001D04CEA04054B4CA560E46802EA040554
:101FA0004E6816F4001F01D04CEA0405454CE5606C
:101FB000646802EA04054E6816F4003F01D04CEA5A
:101FC0000405404C6560246822404D6815F4803F4C
:101FD00001D04CEA04023B4C226001330F2B6BD83A
:101FE00001229A400C6804EA020C32EA0404F4D19B
:101FF0004C6804F00304013C012C90D94A6802F0BB
:102000000302032A09D0C4685D000322AA4024EA1F
:1020100002048A68AA402243C2604A6802F00302AE
:10202000022A90D004684FEA430E032202FA0EF20D
:1020300024EA02044A6802F0030202FA0EF2224382
:1020400002604A6812F4403FC7D0002201921E4A43
:10205000546C44F480445464526C02F48042019203
:10206000019A9C08A51C164A52F8255003F0030259
:102070004FEA820E0F2202FA0EF225EA0205134AF7
:1020800090423FF474AF02F5806290420ED002F5A8
:10209000806290420CD002F5806290420AD002F534
:1020A000806290423FF461AF072261E701225FE75F
:1020B00002225DE703225BE702B070BD704700BFFC
:1020C00000380140003C014000380240000002405E
:1020D0000AB181617047090481617047436901EA6F
:1020E000030221EA030141EA024181617047F8B528
:1020F0000668346A04F00F07C4F34343C4F30A14B8
:10210000022B00D0F8BD0546002CFBD02C2303FB8E
:102110000703596C0029F5D02C2303FB07031A6D24
:102120002244DB6C9A4206D92C2000FB075504237D
:1021300085F86030E6E72246304601F07CFB2C2330
:1021400003FB07535A6C22445A641A6D22441A65E1
:1021500006EB4716D6F81025C2F3C942B3F8403053
:10216000A342CFD1002ACDD0D6F8003523F080434A
:1021700043F00043C6F800352C2303FB075595F8C0
:10218000543083F0010385F85430BBE7F0B585B0D7
:1021900004469DF828509DF82C60BDF8307090F8EA
:1021A000F802012837D0012084F8F8022C2000FB27
:1021B00001404FF0000C80F83DC080F83830A0F8A6
:1021C000407080F8391080F83F6002F07F0C80F892
:1021D0003AC012F0800F16D12C2000FB01404FF0C6
:1021E000000C80F83BC02C2000FB014080F83C50E4
:1021F000029701960095206801F06DFC002384F899
:10220000F83205B0F0BD2C2000FB01404FF0010C6E
:1022100080F83BC0E7E70220F3E790F8F832012BA3
:102220000BD010B50446012380F8F832006801F0A5
:10223000EBFC002084F8F80210BD02207047002853
:102240004DD070B58AB00446056890F8F932002B7D
:1022500040D0032384F8F932EB6B13F4807F01D173
:1022600000232361206801F07AFAA4465CF8106B21
:10227000EE46BCE80F00AEE80F00BCE80F00AEE889
:102280000F009CE803008EE80300251D95E80E0072
:10229000304601F019FA0121206801F0FEFAA44647
:1022A0005CF8106BEE46BCE80F00AEE80F00BCE82F
:1022B0000F00AEE80F009CE803008EE8030095E8ED
:1022C0000E00304601F01AFB012384F8F932002099
:1022D0000AB070BD80F8F83206F044FDB9E701207D
:1022E000704770B59DF81050BDF818604FF02C0C79
:1022F0000CFB010C8CF83B208CF83F307DB9644618
:102300004FF0030C84F842C09DF81CC084F83DC017
:10231000032B00F28180DFE803F00A7929512C2495
:1023200004FB01044FF0020C84F842C0F0E7012DD9
:1023300072D1002A70D12EB92C2303FB0103012294
:1023400083F855202C2303FB010393F8553033B950
:102350002C2303FB0103002283F842205CE02C23A2
:1023600003FB0103022283F8422055E092B92C239B
:1023700003FB010393F855302BB92C2303FB010316
:1023800083F8422048E02C2303FB0103022283F858
:10239000422041E02C2303FB010393F8543033B96E
:1023A0002C2303FB0103002283F8422034E02C237A
:1023B00003FB0103022283F842202DE092B92C2373
:1023C00003FB010393F855302BB92C2303FB0103C6
:1023D00083F8422020E02C2303FB0103022283F830
:1023E000422019E02C2303FB010393F8543033B946
:1023F0002C2303FB0103002283F842200CE02C2352
:1024000003FB0103022283F8422005E02C2303FB97
:102410000103002283F842202C2301FB03F3C2189E
:10242000059C5464D664002482F86040146582F8E8
:10243000391082F8614003F13801027C01440068E0
:1024400001F066FC70BD30B583B004460568D5F870
:1024500040340193D5F840340093009B23F02E03C1
:102460000093019B13F0020F07D0019B13F0010FA3
:1024700025D1009B43F002030093019B13F0080F4A
:1024800010D0009B43F008030093019B13F0040F4E
:102490002DD0A369022B15D0E368012B22D0204652
:1024A00006F0B5FC019B13F0200F03D0009B43F016
:1024B00020030093009BC5F8403403B030BD06F004
:1024C00099FCD6E7019B03F4C023B3F5802F04D019
:1024D0000121206801F08EFAE1E70221206801F075
:1024E00089FADCE74EF66022C5F80424D7E72046D7
:1024F00006F093FCD6E7F8B504460E46076807EBEE
:10250000411707F5A065AB6813F0040F0AD1AB685B
:1025100013F4807F49D1AB6813F0200F52D02023F1
:10252000AB600AE00423AB602C2303FB010306220B
:1025300083F86120006801F067FBAB6813F4007F4B
:1025400071D1AB6813F0010F00F09D80236943B196
:102550002C2303FB06439A6C2969C1F31201521A1A
:102560001A652C2303FB0643012283F86120002116
:10257000D965AA6093F83F30002B5CD0022B5AD06B
:10258000032B01D0012B5CD1D7F8003543F0005369
:10259000C7F800352C2303FB0643012283F8602093
:1025A0003146204606F032FC4BE04FF48073AB60BE
:1025B0002C2303FB0103072283F86120006801F04C
:1025C00023FBBAE7AB6813F0080F13D1AB6813F421
:1025D000806F1BD1AB6813F0800FAED08023AB604F
:1025E0002C2303FB0103062283F86120006801F01D
:1025F0000BFBA2E70823AB602C2303FB010305229E
:1026000083F86120006801F0FFFA96E74FF48063D9
:10261000AB602C2303FB0103082283F861200068D0
:1026200001F0F2FA89E73146206801F0EDFA4FF443
:102630000073AB60F8BD3146206801F0E5FA102365
:10264000AB602369012B09D02C2101FB064494F8CF
:10265000543083F0010384F85430EBE72C2303FB60
:1026600006439A6CB3F84030B2FBF3F313F0010F5A
:10267000E0D02C2303FB064494F8543083F001038C
:1026800084F85430D6E7AB6813F0020F60D02C23E7
:1026900003FB064393F86130012B13D0052B23D0A5
:1026A000062B28D0082B26D0032B42D0072B0FD186
:1026B0002C2303FB0643DA6D0132DA65042283F82A
:1026C000602005E02C2303FB0643012283F86020F1
:1026D0000223AB602C2303FB064393F860203146B2
:1026E000204606F093FBA5E72C2303FB06430522B7
:1026F00083F86020ECE72C2202FB0642D36D013305
:10270000D365022B06D913460022DA65042283F82A
:102710006020DDE72C2303FB0643022283F86020C0
:10272000D7F8003523F0804343F00043C7F8003565
:10273000CEE72C2303FB0643022283F86020D7F860
:10274000003523F0804343F00043C7F80035BFE76E
:10275000AB6813F0100F3FF46DAF2C2303FB06435F
:1027600093F83F30032B0CD00BB1022B06D12C2356
:1027700003FB06430022DA65236963B11023AB60D3
:1027800058E72C2303FB06430022DA653146206814
:1027900001F03AFAF2E72C2303FB0643032283F805
:1027A00061203146206801F02FFAE7E738B5036869
:1027B00003EB411202F5A065AC6814F0040F19D1C7
:1027C000AC6814F0200F21D02023AB602C2303FB36
:1027D000010393F83D30012B17D12C2303FB010398
:1027E000002283F83D20022283F86020006801F077
:1027F0000BFA0AE00423AB602C2303FB010306223F
:1028000083F86120006801F0FFF938BDAC6814F46A
:10281000007F1FD1AC6814F0010F22D02C2303FBE2
:1028200001030022DA65AB6813F0400F07D02C23B8
:1028300003FB0103012283F83D204023AB6001220A
:10284000AA602C2303FB010383F86120006801F0D8
:10285000DBF9DAE74FF40073AB60006801F0D4F9FC
:10286000D3E7AC6814F0400F24D1AC6814F0080F23
:1028700031D1AC6814F0100F39D02C2202FB0102C8
:102880000024D465032482F8614092F83D205AB9AF
:102890002C2202FB010292F83C202AB92C2202FBD6
:1028A0000102012082F83D00184601F0ADF9102325
:1028B000AB60AAE72C2202FB0100042280F8612011
:1028C000012280F83D200022C265184601F09CF9E3
:1028D0004023AB6099E70823AB602C2303FB010383
:1028E000052283F86120006801F08EF98DE7AC685D
:1028F00014F0800F25D0026982B12C2202FB010264
:10290000D36D0133D365022B12D82C2303FB0103B3
:10291000022283F860208023AB6076E72C2202FB42
:102920000102062082F86100184601F06DF9F2E715
:1029300013460022DA65042283F8602006F066FA66
:10294000E9E7AC6814F4806F23D1AB6813F0020F91
:102950003FF45BAF2C2303FB010393F86130012BA1
:1029600024D0032B56D0042B64D0052B69D0062B22
:1029700001D0082B54D12C2404FB0104E36D013356
:10298000E365022B64D90022E265042284F860200A
:1029900046E02C2202FB0102082082F86100184662
:1029A00001F032F94FF48063AB602EE72C2303FB78
:1029B0000103012283F8602093F83F30023BDBB231
:1029C00093422DD8046944B92C2303FB010393F8E7
:1029D000552082F0010283F85520012C20D12C23B0
:1029E00003FB0103DB6CDBB12C2202FB0102B2F81A
:1029F00040201344013BB3FBF2F313F0010F0FD05F
:102A00002C2303FB010393F8552082F0010283F885
:102A1000552005E02C2303FB0103022283F86020EC
:102A20000223AB602C2303FB010393F8602006F024
:102A3000EDF9EAE62C2303FB0103022283F8602070
:102A4000EEE72C2303FB0103052283F86020E7E770
:102A50002C2303FB0103022483F86040D2F80035E5
:102A600023F0804343F00043C2F80035D8E7F8B5BF
:102A700004460568284600F00CFF012800D0F8BD88
:102A8000206800F002FF0028F9D0206800F0FDFE69
:102A900010F4001F03D023684FF400125A6120681D
:102AA00000F0F3FE10F4801F03D023684FF480126F
:102AB0005A61206800F0E9FE10F0806F03D02368AF
:102AC0004FF080625A61206800F0DFFE10F0020FC4
:102AD00002D0236802225A61206800F0D6FE10F06E
:102AE000005F08D023684FF000525A61D5F8403497
:102AF00013F0010F1DD0206800F0C7FE10F0807F9A
:102B000026D1206800F0C1FE10F0080F24D1206803
:102B100000F0BBFE10F0100F25D1206800F0B5FECC
:102B200010F0007FABD0206801F069F8074600265E
:102B30002CE01021284600F019FE284600F03EFE49
:102B40000121206800F056FF204606F059F9D2E72F
:102B50002046FFF778FCD4E7204606F045F92368C5
:102B600008225A61D3E72268936923F01003936126
:102B70002046FFF7BCFA2268936943F01003936183
:102B8000CBE7F1B22046FFF711FE0136A368B3424E
:102B900012D906F00F0327FA03F313F0010FF4D054
:102BA00005EB4613D3F8003513F4004FE9D0F1B22A
:102BB0002046FFF7A0FCE8E723684FF000725A6157
:102BC0005DE790F8F832012B0ED010B504460121D4
:102BD00080F8F812006800F04BFF206800F0B9FDA3
:102BE000002084F8F80210BD0220704790F8F832F7
:102BF000012B0BD010B50446012380F8F832006891
:102C000001F03CF9002084F8F80210BD0220704762
:102C100008B5006800F00DFF08BD2C2303FB010080
:102C200090F8600070472C2303FB0100006D704793
:102C300008B5006800F04AFF08BD08B5006800F05C
:102C40003AFF08BD002800F0E08170B582B004466C
:102C5000036813F0010F3BD09F4B9B6803F00C03FC
:102C6000042B2CD09C4B9B6803F00C03082B21D029
:102C70006368B3F5803F4FD0B3F5A02F52D0964B89
:102C80001A6822F480321A601A6822F480221A60CC
:102C90006368002B50D0FEF767FD05468E4B1B681E
:102CA00013F4003F14D1FEF75FFD401B6428F5D9F3
:102CB0000320B1E1884B5B6813F4800FD8D0864BBA
:102CC0001B6813F4003F03D06368002B00F09F8162
:102CD000236813F0020F54D07F4B9B6813F00C0F46
:102CE0003ED07D4B9B6803F00C03082B33D0E36888
:102CF000002B68D0794B01221A60FEF735FD05469E
:102D0000754B1B6813F0020F54D1FEF72DFD401BCD
:102D10000228F5D903207FE16F4A136843F480331A
:102D20001360B5E76C4B1A6842F480221A601A6887
:102D300042F480321A60ABE7FEF716FD0546664B9B
:102D40001B6813F4003FC3D0FEF70EFD401B642840
:102D5000F5D9032060E1604B5B6813F4800FC6D1A6
:102D60005D4B1B6813F0020F03D0E368012B40F0AA
:102D70005081594A136823F0F803216943EAC103DB
:102D80001360236813F0080F42D063696BB3534B91
:102D90000122C3F8802EFEF7E7FC05464E4B5B6F21
:102DA00013F0020F34D1FEF7DFFC401B0228F5D9E7
:102DB000032031E1484A136823F0F803216943EA0C
:102DC000C1031360DDE7454B00221A60FEF7CCFC1F
:102DD0000546414B1B6813F0020FD2D0FEF7C4FC2E
:102DE000401B0228F5D9032016E13C4B0022C3F812
:102DF000802EFEF7B9FC0546374B5B6F13F0020FD0
:102E000006D0FEF7B1FC401B0228F5D9032003E1F0
:102E1000236813F0040F77D02F4B1B6C13F0805FE7
:102E200033D1002301932C4B1A6C42F080521A6468
:102E30001B6C03F080530193019B0125284B1B68F9
:102E400013F4807F23D0A368012B34D0052B38D016
:102E5000214B1A6F22F001021A671A6F22F0040246
:102E60001A67A368002B3DD0FEF77EFC06461A4B7E
:102E70001B6F13F0020F46D1FEF776FC801B41F268
:102E800088339842F3D90320C6E00025D6E7144AD8
:102E9000136843F480731360FEF766FC0646104B1C
:102EA0001B6813F4807FCED1FEF75EFC801B0228E6
:102EB000F5D90320B0E0084A136F43F0010313670C
:102EC000CFE7054B1A6F42F004021A671A6F42F0FF
:102ED00001021A67C5E700BF003802400000474200
:102EE00000700040FEF740FC0646524B1B6F13F08B
:102EF000020F08D0FEF738FC801B41F2883398425D
:102F0000F3D9032088E0EDB9A369002B00F083809A
:102F1000484A926802F00C02082A51D0022B17D0BE
:102F2000454B00221A66FEF71FFC0446414B1B6806
:102F300013F0007F42D0FEF717FC001B0228F5D9E2
:102F4000032069E03B4A136C23F080531364DBE7F2
:102F5000394B00221A66FEF707FC0546354B1B6805
:102F600013F0007F06D0FEF7FFFB401B0228F5D9C7
:102F7000032051E0E369226A1343626A43EA821341
:102F8000A26A5208013A43EA0243E26A43EA026350
:102F9000284A5360284B01221A66FEF7E5FB0446D7
:102FA000244B1B6813F0007F06D1FEF7DDFB001BEE
:102FB0000228F5D903202FE000202DE000202BE08F
:102FC000012B2BD01B4B5B6803F48001E26991421B
:102FD00026D103F03F02216A8A4223D1616A47F673
:102FE000C0721A40B2EB811F1ED103F44031A26AB5
:102FF0005208013AB1EB024F18D103F07063E26A54
:10300000B3EB026F14D1002006E0012070470120CD
:1030100002E0012000E0002002B070BD0120FBE7CB
:103020000120F9E70120F7E70120F5E70120F3E7A8
:103030000120F1E7003802400000474208B5254B67
:103040009B6803F00C03042B3FD0082B3FD1214B8E
:103050005A6802F03F025B6813F4800F12D01D4BD8
:103060005968C1F388111C480023A1FB0001FDF73A
:10307000C7F8184B5B68C3F3014301335B00B0FB37
:10308000F3F025E0134B5968C1F3881C4FEA4C114B
:10309000B1EB0C006EEB0E0E4FEA8E1343EA906319
:1030A0008101091A63EB0E03DB0043EA5173C90087
:1030B00011EB0C0C43F10003990200234FEA8C2022
:1030C00041EA9C51FDF79CF8D3E7034800E0034830
:1030D00008BD00BF0038024040787D010024F400A4
:1030E000002800F09B8070B50D4604464F4B1B68CE
:1030F00003F007038B4208D2CBB24C4A137013681B
:1031000003F007038B4240F08B80236813F0020F1B
:1031100017D013F0040F04D0454A936843F4E053EA
:103120009360236813F0080F04D0414A936843F476
:10313000604393603E4A936823F0F003A1680B4319
:103140009360236813F0010F32D06368012B21D004
:103150009A1E012A25D9364A126812F0020F61D050
:1031600033498A6822F0030213438B60FEF7FCFAAE
:1031700006462F4B9B6803F00C036268B3EB820F8B
:1031800016D0FEF7F1FA801B41F288339842F0D94D
:10319000032042E0264A126812F4003FE0D10120E9
:1031A0003BE0234A126812F0007FD9D1012034E0BD
:1031B0001E4B1B6803F00703AB4207D9EAB21B4B57
:1031C0001A701B6803F00703AB422DD1236813F07C
:1031D000040F06D0164A936823F4E053E1680B43CA
:1031E0009360236813F0080F07D0114A936823F403
:1031F0006043216943EAC1039360FFF71FFF0C4B53
:103200009B68C3F303130B4AD35CD8400A4B186086
:103210000A4B1868FEF75CFA002070BD0120704769
:103220000120FAE70120F8E70120F6E7003C024020
:103230000038024024F000080000002008000020B0
:10324000014B1868704700BF0000002008B5FFF769
:10325000F7FF044B9B68C3F38223034AD35CD84037
:1032600008BD00BF0038024034F0000808B5FFF781
:10327000E7FF044B9B68C3F34233034AD35CD84057
:1032800008BD00BF0038024034F0000870477047A6
:1032900070477047704710B5044603681A6912F00A
:1032A000020F11D0DA6812F0020F0DD06FF0020297
:1032B0001A610123037703689B6913F0030F70D031
:1032C000FFF7E6FF0023237723681A6912F0040F43
:1032D00012D0DA6812F0040F0ED06FF004021A61F7
:1032E0000223237723689B6913F4407F5FD0204635
:1032F000FFF7CEFF0023237723681A6912F0080F27
:1033000012D0DA6812F0080F0ED06FF008021A61BE
:10331000042323772368DB6913F0030F4ED0204684
:10332000FFF7B6FF0023237723681A6912F0100F06
:1033300012D0DA6812F0100F0ED06FF010021A617E
:10334000082323772368DB6913F4407F3DD02046B0
:10335000FFF79EFF0023237723681A6912F0010FFD
:1033600003D0DA6812F0010F36D123681A6912F01F
:10337000800F03D0DA6812F0800F34D123681A6905
:1033800012F0400F03D0DA6812F0400F32D12368F8
:103390001A6912F0200F03D0DA6812F0200F30D132
:1033A00010BDFFF774FF2046FFF773FF8AE7204642
:1033B000FFF76DFF2046FFF76CFF9BE72046FFF706
:1033C00066FF2046FFF765FFACE72046FFF75FFF8B
:1033D0002046FFF75EFFBDE76FF001021A6120464D
:1033E000FFF754FFC1E76FF080021A61204600F03A
:1033F0008AF8C3E76FF040021A612046FFF74AFFE0
:10340000C5E76FF020021A61204600F07BF8C7E79D
:103410000368254A90420ED0B0F1804F0BD0A2F540
:103420007C42904207D002F58062904203D002F5C0
:103430008062904203D123F070034A6813431A4A12
:1034400090421AD0B0F1804F17D0A2F57C42904242
:1034500013D002F5806290420FD002F58062904254
:103460000BD002F59A32904207D002F5806290426A
:1034700003D002F58062904203D123F44073CA68FE
:10348000134323F080034A69134303608B68C362CC
:103490000B688362044B984202D00123436170475A
:1034A0000B690363F9E700BF0000014040B310B5AA
:1034B000044690F83D30F3B1022384F83D302146B4
:1034C00051F8040BFFF7A4FF012384F8463084F879
:1034D0003E3084F83F3084F8403084F8413084F83E
:1034E000423084F8433084F8443084F8453084F81E
:1034F0003D30002010BD80F83C30FEF74BF8DBE794
:10350000012070477047704738B504460268136958
:1035100023F44053C1680B4313618368026913436A
:1035200042691343C2691A430168CB6823F4164306
:1035300023F00C031343CB600268536923F44073F8
:1035400081690B4353610368314A934206D002F507
:103550008062934202D0FFF779FE01E0FFF786FE1A
:10356000E369B3F5004F29D00021031849411B1826
:1035700041F10001C90041EA5371DB00181863688A
:103580004FEA83024FEA937341F10001FCF738FEE2
:10359000204DA5FB00325109642303FB11031B01DD
:1035A0003233A5FB03235B0903F0F00202EB0112A7
:1035B00003F00F03216813448B6038BD0023021809
:1035C00043EB0301121841F10001C90041EA5271B5
:1035D000D200101841F10001626892185B41FCF7BB
:1035E0000FFE0C4DA5FB00325109642303FB1103B0
:1035F000DB003233A5FB03235B095A0002F4F872A7
:1036000002EB011203F00703216813448B60D4E737
:10361000001001401F85EB5158B310B5044690F8D7
:103620003D300BB3242384F83D302268D36823F463
:103630000053D3602046FFF767FF2268136923F425
:10364000904313612268536923F02A03536122686F
:10365000D36843F40053D36000202064202384F80F
:103660003D3084F83E3010BD80F83C30FDF7CCFF93
:10367000D8E701207047000082B000230193019B2E
:1036800001330193019A0F4B9A4215D80369002B1D
:10369000F5DA00230193036943F001030361019B01
:1036A00001330193019A074B9A4208D8036913F03A
:1036B000010FF4D1002000E0032002B07047032086
:1036C000FBE700BF400D030084B010B5044603A81B
:1036D00080E80E00089B012B1FD1A36B23F48033DD
:1036E000A363E36823F4840323F04003E360E36807
:1036F00023F44013E3600F9B012B09D02046FFF712
:10370000BBFF069B012B1BD0BDE8104004B07047E7
:10371000E36843F48013E360F0E7E36843F04003B9
:10372000E3602046FFF7A8FF0C9B23B9A36B43F48B
:103730008033A363E5E7A36B23F48033A363E0E75F
:10374000A36843F00603A360A36843F02003A360CB
:10375000DAE7836843F001038360002070478368E1
:1037600023F00103836000207047000082B0002333
:103770000193019B01330193019A0F4B9A4215D893
:103780000369002BF5DA00230193890141F0200140
:103790000161019B01330193019A074B9A4208D8BA
:1037A000036913F0200FF4D1002000E0032002B0E1
:1037B00070470320FBE700BF400D030082B00023E9
:1037C0000193019B01330193019A0E4B9A4213D846
:1037D0000369002BF5DA0023019310230361019B99
:1037E00001330193019A074B9A4208D8036913F0F9
:1037F000100FF4D1002000E0032002B07047032036
:10380000FBE700BF400D030010B59DF8084084B9E8
:1038100003334FEA930E4FF0000C08E000EB023345
:1038200003F5805351F8044B1C600CF1010CF44576
:10383000F4D3002010BD00B583B0844608464FEA9B
:10384000920E02F00302002305E00CF58051096896
:1038500040F8041B01337345F7D39AB10CF5805C33
:10386000DCF8003001934FF0000C5FFA8CF3D900C4
:10387000019BCB4000F8013B0CF1010C013A92B2E4
:10388000002AF2D103B05DF804FB42698069104060
:103890007047406900F00100704738B50546C368BD
:1038A00023F0C043C360012913D019BBC36843F0A0
:1038B0008043C36000240120FDF75CFF01342846EB
:1038C000FFF7E7FF08B1312CF5D9322C14D00020D6
:1038D00038BDC36843F00053C36000240120FDF7E6
:1038E00049FF01342846FFF7D4FF0128EDD0312CE1
:1038F000F4D9EAE70120EBE70120E9E784B038B525
:10390000044605A880E80E000023C4F8003EA36B1F
:1039100043F40013A363A36B23F40023A363A36BFB
:1039200023F48023A363E36B13F4807F10D0079B01
:10393000012B06D0D4F8003423F00403C4F800347B
:103940000CE0D4F8003443F00403C4F8003405E07C
:10395000D4F8003423F00403C4F8003410212046C6
:10396000FFF704FF054600B101252046FFF726FFBB
:1039700000B10125002209E004EB42134FF0FF31B2
:10398000C3F808150021C3F80C150132069B9342B9
:10399000F2D80023A3614FF0FF336361E36B13F4AC
:1039A000807F17D04FF40073636203F18073A362CA
:1039B0000D4BC4F80031089B1BB9A36943F01003F9
:1039C000A361A269094B1343A3612846BDE83840AF
:1039D00004B070478023636203F5C003A362044B05
:1039E000C4F80031E7E700BF0003E000080020A3AF
:1039F000E000400000F5806CD0F8003423F00303B1
:103A0000C0F80034D0F8003401F003021343C0F8CA
:103A10000034012903D0022906D0002070474BF65C
:103A20008033CCF80430F8E741F27073CCF80430FE
:103A3000F3E730B583B0044600250195D0F8403453
:103A40000193019B23F02E030193019B43F48073A8
:103A5000C0F840346420FDF78DFE019B23F4807391
:103A6000C4F840340A20FDF785FE284603B030BD77
:103A700082B000230193D0F840340193019B23F0DE
:103A80002E030193019B13F4805F01D101290CD017
:103A9000019B13F4805F05D021B9019B23F480536F
:103AA000C0F84034002002B07047019B43F48053BB
:103AB000C0F84034ECE782B000230193D0F84034E2
:103AC00001930198C0F3414002B0704700F5806057
:103AD000806880B270472DE9F84391461C469DF8F6
:103AE000245000EB411606F5A0634FF0FF329A60B8
:103AF000032D76D8DFE805F00267021840F29D42F8
:103B0000DA6019F0800F09D1C26B12F4807F6AD09D
:103B1000DA6842F06002DA6000270CE0DA6842F40A
:103B20008072DA60002706E040F29D62DA6019F0E8
:103B3000800F42D10027DA6842F00202DA60D0F842
:103B4000183401F00F01012202FA01F11943C0F803
:103B50001814836943F00073836119F0800F44D116
:103B60004FF00008FFF7A7FF9DF82030022B3FD051
:103B70000021A30503F0FE534FEAC92909F4F049D7
:103B800043EA0903AC0404F440242343BDF828208D
:103B9000C2F30A02134343EA08030B43C6F8003595
:103BA000032D01D0012D05D1D6F8003543F0005387
:103BB000C6F800353846BDE8F883DA6842F480720A
:103BC000DA600027B7E740F22522DA6019F0800FAB
:103BD00001D10027AFE7DA6842F4C072DA6000274B
:103BE000A9E70127A7E70027A5E74FF40048B9E7B1
:103BF000022802D04FF40031BBE70021B9E700F5FD
:103C00008060406980B2704710B483B00023019394
:103C100000EB411101F5A06CD1F80035C3F38143ED
:103C2000D1F80025846814F0200F02D0D20F002AAA
:103C300051D023B3022B22D0D1F8003543F080437A
:103C4000C1F80035D0F8103413F47F0F47D1D1F804
:103C5000003523F00043C1F80035D1F8003543F0BA
:103C60000043C1F80035019B01330193019BB3F57B
:103C70007A7F30D8DCF80030002BF4DB2BE0D1F871
:103C8000003543F08043C1F80035836813F0200FFE
:103C900021D1C36A13F47F0F17D1D1F8003523F077
:103CA0000043C1F80035D1F8003543F00043C1F8B6
:103CB0000035019B01330193019BB3F57A7F0AD84C
:103CC000DCF80030002BF4DB05E0D1F8003543F0E0
:103CD0000043C1F80035002003B010BC7047D1F894
:103CE000003543F00043C1F80035F4E700EB411123
:103CF000064AC1F81025D1F8003523F0804343F07F
:103D00000043C1F800350020704700BF0000088064
:103D100030B585B04B78C46B14F4807F07D00C7934
:103D20002CB9012A16D012B94C79012C1FD04C693C
:103D30000CB30D8904EB050C0CF1FF3CBCFBF5FC4E
:103D40001FFA8CFCBCF5807F17D92D020D614FF452
:103D5000807C12E0CC790CB1022CE4D100EB43144E
:103D6000D4F80C5525F07005C4F80C55DBE74978FC
:103D7000FFF7BCFF70E04FF0010CCD78002D52D062
:103D80000C8904FB0CF40C610C69C4F312043A4D69
:103D900005EACC4C44EA0C0491F80AC04FEA4C7C8A
:103DA0000CF0C04C00EB431344EA0C04C3F810457C
:103DB00012B1CC68C3F8144500F5806CDCF80840FB
:103DC00014F0010F0CBF4FF0010E4FF0000ED3F8AE
:103DD000005525F00055C3F80055D3F8004544EAD6
:103DE0004E74C3F80045D3F800450394039C24F0B7
:103DF00080440394CC78C4B1039C44F400440394FD
:103E0000039C44F000440394039CC3F800451ABB90
:103E1000CB780BBB4B69FBB1CA79032A15D8DFE815
:103E200002F0091E091E0C61AEE7039C24F4004455
:103E30000394E5E70333C26A92B2C3F38F039A4255
:103E400003D2836943F020038361002300938B8AAC
:103E50004A78C968FFF7D8FC002005B030BD0333AD
:103E6000DCF8102092B2C3F38F039A42EDD283693B
:103E700043F080638361E8E70000F81F30B583B04A
:103E8000044600230193FFF76AFC10212046FFF748
:103E90006DFC054600B101252046FFF78FFC00B1FF
:103EA000012500220AE004EB4211D1F8003523F08D
:103EB000802343F08043C1F8003501320F2AF2D944
:103EC000002100E001310F2916D804EB411000F564
:103ED000A062D0F8003523F4004343F04043C0F81B
:103EE0000035019B01330193019BB3F57A7FE9D83B
:103EF0001368002BF5DBE5E74FF0FF33C4F814340B
:103F000063612046FFF725FC284603B030BD002042
:103F1000704730B4D0F84C35DD690024234601E009
:103F20000133DBB2092B3FD8322202FB030292F8A5
:103F30004723012AF4D1322202FB030292F84823DC
:103F4000022AEDD1322202FB030292F84EC392F90B
:103F50004E23002AE4DA322202FB0302B2F8502395
:103F6000002ADDD004EB840205EB420282F806C091
:103F70004FF0320C0CFB0301B1F850C3A2F808C09B
:103F800091F844C382F80BC091F845C382F80AC087
:103F900091F85213D18104EB840205EB4202012116
:103FA00011730C44E4B2BBE714B1002030BC70477D
:103FB0000220FBE730B4D0F84C35DD6900242346FD
:103FC00001E00133DBB2092B41D8322202FB0302AC
:103FD00092F84723012AF4D1322202FB030292F81D
:103FE0004823022AEDD1322202FB030292F84EC38B
:103FF00092F94E23002AE4DB322202FB0302B2F8DC
:104000005023002ADDD004EB840205EB420282F843
:1040100038C04FF0320C0CFB0301B1F850C3A2F8CA
:104020003AC091F844C382F83DC091F845C382F884
:104030003CC091F85213A2F8401004EB840205EB47
:104040004202012182F83E100C44E4B2B9E714B1F7
:10405000002030BC70470220FBE7012903D0022971
:104060003DD0002070479378013B052BF9D8DFE85D
:1040700003F003050E2C22180260F2E7B0F87E3040
:10408000591CA0F87E1000EB83004260E9E7B0F80D
:104090008030591CA0F88010043300EB830042608C
:1040A000DFE7B0F88230591CA0F88210083300EB2B
:1040B00083004260D5E7B0F88430591CA0F8841022
:1040C000103300EB83004260CBE7B0F88630591C18
:1040D000A0F886100C3300EB83004260C1E79378B0
:1040E000012B0BD0022BBCD1B0F87C30591CA0F8AE
:1040F0007C100A3300EBC3008260B2E7B0F87C307A
:104100000A3300EBC3004260ABE7D0F84C35D86906
:10411000002301E00133DBB29AB2B0F8EEC0624591
:104120000ED203F1220200EB8202926892F804C0E0
:104130008C45EFD1D07843EA004343F4C060704728
:1041400000239AB2B0F8F2C0624515D203F12602FC
:1041500000EB8202926892F805C08C4506D092F876
:1041600006C08C4502D00133DBB2EAE7D07843EADF
:10417000004343F48060704700239AB2B0F8F0C067
:10418000624511D203F12A0200EB8202926892F892
:1041900005C08C4502D00133DBB2EEE7D07843EAAC
:1041A000004343F4A060704700239AB2B0F8ECC01B
:1041B000624511D203F11E0200EB8202926892F86E
:1041C00007C08C4502D00133DBB2EEE7D07843EA7A
:1041D000004343F4407070470020704770B50546B7
:1041E000D0F84C35DC69002301E00133DBB29AB230
:1041F000B4F8EA108A4211D203F11A0204EB8202E7
:1042000090680279417942EA012240F201218A4212
:10421000EBD1C178C37984F8513100E00021002648
:1042200003E084F84F01032B24D02846FFF76DFFED
:104230000146F0B1C0B2C1F30723C1F30741DA1E52
:10424000032A14D80FF2040C5CF822F0694200082B
:104250005D420008634200082342000884F84D01D3
:10426000E1E784F84E01DEE784F85001DBE702263F
:10427000D9E70226304670BD70B50546D0F84C35FA
:10428000DC69002301E00133DBB29AB2B4F8EA1032
:104290008A4211D203F11A0204EB82029068027979
:1042A000417942EA012240F201118A42EBD1C17800
:1042B000C37984F8093100E0002100239AB2B4F8F0
:1042C000E80082420CD203F1170204EBC2029268AA
:1042D000D2788A4202D00133DBB2EFE784F80431AE
:1042E000002603E084F807C1032838D02846FFF7EA
:1042F0000CFF034690B35FFA80FCC0F30720C3F3C2
:104300000741C21E032A25D80FF2040E5EF822F0E0
:104310002D4300082143000827430008E542000818
:1043200084F805C1E0E784F806C1DDE784F808C138
:10433000BCF1030F10D8DBB21E3304EB83039A6881
:104340001379527943EA022340F203129342CBD00D
:10435000002604E00226C7E70226C5E7022630460B
:1043600070BD00BF08B58C4611462222027401229E
:1043700042744FF480724282A0F814C00322C282B9
:1043800004F0E6FA08BD10B58446BDF80CE0D0F89C
:104390004C05C469022908D0062911D002204FF02B
:1043A000000E72467346C0B110BD236FDA78120258
:1043B0000020A4F890014FF0010E4FF48073F2E753
:1043C00002F1220004EB80008268D27812029DF88C
:1043D000081041EA03230020E5E721218CF81010A2
:1043E00001218CF81110ACF81230ACF81420ACF8A4
:1043F00016E0724604F5C871604604F0A9FAD3E7E6
:1044000010B582B0D0F84C45E469A4F8903102238D
:10441000019300920A460621FFF7B5FF02B010BDD6
:1044200038B5D0F84C35DC69012927D002292ED0C7
:104430000225D4F83421D4F830319A4201D9C4F895
:104440003431D4F83421D4F82C319A4201D2C4F852
:104450003431B4F8343194F8A12194F8A011FFF765
:10446000CFFF012808D094F8A131012B18D0013BCF
:1044700084F8A13106236370284638BDD4F838216A
:10448000D4F834311344C4F834310D46D1E7D4F8AC
:104490003821D4F834319B1AC4F834310125C8E7E7
:1044A00094F8073184F8A03194F8093184F8A131E7
:1044B0000025DFE710B584461046BDF80C20DCF877
:1044C0004C45E469032923D0062913D0022905D0DD
:1044D000022000229646134628B310BD236F93F89E
:1044E00003E04FEA0E2E0020A4F8900101224FF4C1
:1044F0008073F1E7223004EB8000816891F803E0DB
:104500004FEA0E2E9DF8081041EA03230020E3E74E
:10451000D4F8803093F803E04FEA0E2E00200122F9
:104520004FF48073D8E7A1218CF8101081218CF80A
:104530001110ACF81230ACF814E0ACF8162004F509
:10454000C871604604F004FAC7E710B58446104607
:10455000BDF80C20DCF84C45E469032923D006297A
:1045600013D0022905D0022000229646134628B314
:1045700010BD236F93F803E04FEA0E2E0020A4F83D
:10458000900101224FF48073F1E7223004EB8000A8
:10459000816891F803E04FEA0E2E9DF8081041EA79
:1045A00003230020E3E7D4F8803093F803E04FEAD8
:1045B0000E2E002001224FF48073D8E7A1218CF841
:1045C000101082218CF81110ACF81230ACF814E005
:1045D000ACF8162004F5C871604604F0B9F9C7E7D5
:1045E00010B584461046BDF80C20DCF84C45E46953
:1045F000032923D0062913D0022905D00220002246
:104600009646134628B310BD236F93F803E04FEA94
:104610000E2E0020A4F8900101224FF48073F1E7E0
:10462000223004EB8000816891F803E04FEA0E2EFF
:104630009DF8081041EA03230020E3E7D4F8803016
:1046400093F803E04FEA0E2E002001224FF480730E
:10465000D8E7A1218CF8101083218CF81110ACF848
:104660001230ACF814E0ACF8162004F5C8716046BE
:1046700004F06EF9C7E710B584461046BDF80C206B
:10468000DCF84C45E469032923D0062913D002291C
:1046900005D0022000229646134628B310BD236F92
:1046A00093F803E04FEA0E2E0020A4F890010122B7
:1046B0004FF48073F1E7223004EB8000816891F8B9
:1046C00003E04FEA0E2E9DF8081041EA0323002074
:1046D000E3E7D4F8803093F803E04FEA0E2E002091
:1046E00001224FF48073D8E7A1218CF810108421A7
:1046F0008CF81110ACF81230ACF814E0ACF81620BD
:1047000004F5C871604604F023F9C7E710B582B01C
:10471000D0F84C35DC696378043B042B04D8DFE81F
:1047200003F01B31054F6500012060E00223019377
:1047300000920A460621FFF7BDFE012857D0042348
:104740006370B4F89021B4F892311B029BB213430A
:10475000C4F8343101204AE00223019300920A4652
:104760000621FFF7F2FE012841D005236370B4F85B
:104770009021B4F892311B029BB21343C4F82C3140
:10478000012034E00223019300920A460621FFF73C
:1047900027FF01282BD007236370B4F89021B4F8C9
:1047A00092311B029BB21343C4F83031D4F82C2150
:1047B00093421ED24FF47F43C4F83031012016E0FB
:1047C0000223019300920A460621FFF754FF0128B5
:1047D0000DD008236370B4F89021B4F892311B0215
:1047E0009BB21343C4F83831012000E0002002B02E
:1047F00010BD0120FBE710B5D0F84C35DC6994F80A
:10480000A12194F8A011FFF781FF012809D094F8A5
:10481000A131012B06D0013B84F8A13101200623F0
:10482000637010BD94F8073184F8A031002084F83B
:10483000A101F4E770B50446D0F84C35DE69F5788F
:104840006B1E042B5BD8DFE803F003215A4A5200A9
:10485000D0F8943513F0010F01D0284670BDD0F880
:104860009435C6F88C3196F88A3196F8862106F58B
:10487000C87104F0A8F996F8073186F8A03196F8C7
:10488000093186F8A1310223F370E6E796F88A1120
:1048900004F00AFB01280AD0D4F89435D6F88C210C
:1048A0009B1A96F88B2193420AD20125D5E796F8F8
:1048B00090112046FFF7B4FD05460128ECD1CCE766
:1048C000D4F89435C6F88C3196F88A3196F886215A
:1048D00006F5C871204604F076F90125BDE70121EF
:1048E000FFF79EFD054660B90123F370B5E702218D
:1048F000FFF796FD054630B90123F370ADE70125BA
:10490000ABE70125A9E70125A7E7000038B5D0F8F6
:104910004C35DC692378013B062B00F29E80DFE8F2
:1049200003F00493042355744D0094F84251012D73
:1049300003D00423237001258DE0002294F8401158
:1049400004F0B0F810B90423237084E0032840F089
:104950008280444804F07CFE434804F079FE0A203B
:1049600004F08AFE022576E094F8FA50012D05D075
:10497000072323700623637001256CE0002294F85E
:10498000F81004F08FF860B90723237006236370D2
:1049900094F8073184F8A03194F8093184F8A131F2
:1049A00059E0032857D12F4804F052FE2E4804F056
:1049B0004FFE0A2004F060FE02254CE0FFF71BFFCB
:1049C00000284CD105232370012544E094F842517E
:1049D000012D03D00623237001253CE094F84121EA
:1049E00094F8401104F05EF810B90623237032E009
:1049F000032830D11B4804F02BFE1B4804F028FE8E
:104A00000A2004F039FE022525E094F8FA50012D21
:104A100003D00223237001251DE094F8F92094F8B7
:104A2000F81004F03FF810B90223237013E00328B4
:104A300011D10C4804F00CFE0B4804F009FE0A20CA
:104A400004F01AFE022506E00123A370D0F8A43575
:104A5000022198470025284638BD0125FBE701259E
:104A6000F9E700BF44F000084CF0000838B50446F0
:104A7000D0F84C35DD6995F8431189B995F8FB10EC
:104A8000C9B995F88A1111BBD4F84C35D86928B149
:104A900004F0C8FAD4F84C350022DA61002038BDA1
:104AA00004F0D5F895F84311204604F0E9F8002306
:104AB00085F84331E2E7204604F0C9F895F8FB1089
:104AC000204604F0DDF8002385F8FB30D9E72046C6
:104AD00004F0BDF895F88A11204604F0D1F80023BF
:104AE00085F88A31D0E738B50446D0F84C35DD6911
:104AF000FF230122114603F06DFA092835D800235F
:104B000001E00133DBB2092B2DD81946322202FB1A
:104B1000034292F84723032AF3D1322202FB0342D5
:104B2000B2F85023002AECD0322202FB034292F862
:104B30004E0392F94E23002AE3DA85F884013223EA
:104B400003FB0144B4F85033A5F8863194F844339C
:104B500085F8883194F8523385F88B31012385F834
:104B60008931002000E0022038BD0220FCE700006F
:104B70002DE9F04383B00546D0F84C35D3F81C90AE
:104B800000F11C040923ADF806300027A9F8EE70E7
:104B9000A9F8EA70A9F8EC70A9F8E870B8463E46A2
:104BA00007E090F80280C2784146284603F03CFABC
:104BB0000646B5F83A23BDF806309A4229D90DF1D8
:104BC0000601204603F00AFE04464378042BE8D091
:104BD000242BEED195F83C334345EAD3092E0DD969
:104BE0000E4804F035FDD5F84C3519680C4804F032
:104BF0002FFD0A2004F040FD0227DAE7322303FBF1
:104C00000653024693F8481309F16C00FFF725FAA2
:104C1000CFE7384603B0BDE8F08300BF88F0000856
:104C200094F00008F0B585B0054600230122114636
:104C300003F0D0F9FF281FD0D5F84C454FF4D270BF
:104C400004F0E8F9E061D5F84C35DC6914B34FF4B1
:104C5000D2720021204604F09DFC2846FFF759F946
:104C600007462846FFF7A6F90646022F1DD04FF04B
:104C7000000C6046634635E0814804F0E9FCD5F855
:104C80004C3519687F4804F0E3FC0A2004F0F4FC7A
:104C9000022691E07A4804F0DBFC7B4804F0D8FC63
:104CA0000A2004F0E9FC022686E0022804D04FF036
:104CB000000C6046634615E0714804F0C9FCD5F865
:104CC0004C351968714804F0C3FC0A2004F0D4FC88
:104CD00072E002EB820104EB4101097B01292ED035
:104CE0000133DBB2042B4DD81A4603EB830104EBEE
:104CF000410191F83E100129EBD103EB830104EB54
:104D000041014E8F8642E4D903EB830104EB41015C
:104D100091F83D0084F8F80091F83C0084F8F9001F
:104D200091F8380084F8F400A4F8F66091F8401087
:104D300084F8FC10012184F8FA103046C9E702EB30
:104D4000820104EB410109896145C9D902EB820660
:104D500004EB4606F77A84F84071B77A84F841711B
:104D6000B67984F83C61A4F83E1102EB820204EBB0
:104D7000420292F8402084F84421012284F8422122
:104D80008C46ADE72846FFF7AEFE10B9012384F844
:104D900089312846FFF7ECFE94F8FA30012B0ED04B
:104DA00094F84231012B2BD094F88931012B48D053
:104DB00001232370E3700026304605B0F0BD28467D
:104DC000FFF75AFA94F8F410284603F045FF01461D
:104DD00084F8FB0094F8F420B4F8F6300293012331
:104DE000019395F81D33009395F81C33284603F082
:104DF0001EFF002294F8FB10284604F061F8CFE76C
:104E00002846FFF7EBF994F83C11284603F024FFFD
:104E1000014684F8430194F83C21B4F83E310293F2
:104E20000123019395F81D33009395F81C33284610
:104E300003F0FDFE002294F84311284604F040F8E8
:104E4000B2E794F88411284603F006FF014684F87F
:104E50008A0194F88421B4F88631029303230193E4
:104E600095F81D33009395F81C33284603F0DFFEB8
:104E7000002294F88A11284604F022F898E700BF2F
:104E800088F00008C8F00008F0F0000818F10008E9
:104E90007047704770B50546D0F84C35DE693479F7
:104EA000012C04D0022C20D00224204670BDD0F862
:104EB000943513F0010FF8D1D0F89435C6F80031CD
:104EC0000223337196F8FB30B6F82021D6F8101182
:104ED00003F089FEB6F82031C6F81831C6F81C3147
:104EE000D6F81031C6F81431DFE796F8FB1003F05E
:104EF000DBFF0446012801D00124D6E7D5F894351C
:104F0000D6F800219B1A96F8FC209342CDD3D5F811
:104F10009435C6F8003196F88931012B20D0D6F8A7
:104F20001C21D6F824319A421ED896F8FB30B6F8E8
:104F30002021D6F81411284603F055FEB6F820219A
:104F4000D6F814311344C6F81431D6F81831134486
:104F5000C6F81831D6F81C311344C6F81C31A4E742
:104F60002846FFF767FCDAE74FF0FF33C6F8183141
:104F70000523B3702846FFF78CFF96E770B504460B
:104F8000D0F84C35DE69B5786B1E042B04D8DFE809
:104F900003F0052313313500012530E096F8043184
:104FA000173306EBC303DB68DB7913B90323B37054
:104FB00025E00223B37022E096F80431173306EBA4
:104FC000C303DA68083296F8F410FFF7CBF9054608
:104FD000A8B90523B37012E006F5867296F8F410AE
:104FE000FFF7C0F9054650B90523B3702046FFF717
:104FF0004FFF04E0FFF74EFF002500E000252846A4
:1050000070BD08B5D0F84C35DB6993F8FA30012B48
:1050100001D0012008BDFFF7B1FFFAE7002070477B
:1050200008B5212202742022427400224282828228
:105030000722C28203F08CFC08BD08B5A1220274CD
:10504000212242740022428282820722C28203F01D
:105050007FFC08BD38B50446D0F84C35D9694031DD
:10506000FFF7EBFF054630B9D4F8A43502212046FE
:105070009847284638BD0328FBD1054804F0E8FAD4
:10508000044804F0E5FA0A2004F0F6FAF1E700BF5C
:1050900044F0000848F1000838B50446D0F84C3513
:1050A000DD69297879B9297BB1B9697BF1B9D4F87F
:1050B0004C35D86928B103F0B5FFD4F84C3500223F
:1050C000DA61002038BD03F0C2FD2978204603F0E4
:1050D000D7FD00232B70E6E7204603F0B8FD297BBF
:1050E000204603F0CDFD00232B73DEE7204603F0BE
:1050F000AEFD697B204603F0C3FD00236B73D6E74A
:10510000F0B585B0044601230222114602F062FF89
:10511000092800F2998006460146204602F016FF53
:105120000746002840F0CF80D4F84C55502003F0BB
:1051300071FFE861D4F84C35DD69002D00F09280F4
:1051400050220021284604F025FA322303FB0643AF
:1051500093F84E2393F94E33002BC0F28E8069787A
:10516000204603F079FD014628706A786B89029326
:105170000323019394F81D33009394F81C332046C5
:1051800003F055FD00222978204603F099FE002304
:105190001A460A21204602F01DFF092875D832233D
:1051A00003FB004393F84E2393F94E33002B7ADB35
:1051B000AA73322303FB0043B3F850332B8332230B
:1051C00003FB004393F8562393F95633002B72DB0D
:1051D000AA73322303FB0040B0F858332B83A97B1A
:1051E000204603F039FD6873E97B204603F034FD67
:1051F0002873AA7B697B2B8B02930226019694F875
:105200001D33009394F81C33204603F010FDEA7B15
:10521000297B6B8B0293019694F81D33009394F8CD
:105220001C33204603F003FD002685F84C6032460F
:10523000697B204603F044FE3246297B204603F07A
:105240003FFE384605B0F0BD204804F001FAD4F81E
:105250004C3519681E4804F0FBF90A2004F00CFADA
:105260000227EEE7194804F0F3F91A4804F0F0F9C0
:105270000A2004F001FA0227E3E76A70322000FBFB
:105280000646B6F850336B8169E7104804F0E0F940
:10529000D4F84C351968104804F0DAF90A2004F003
:1052A000EBF90227CDE7EA73322303FB0043B3F89F
:1052B00050336B8383E7EA73322303FB0040B0F87B
:1052C00058336B838BE70227BBE700BF88F00008E9
:1052D00088F10008C8F10008F0F10008704730B507
:1052E00083B00546D0F84C35DC6994F84D30012B7D
:1052F00003D0022B19D003B030BD606A228B9042DC
:105300000AD9637BE16901200090284603F035FC4F
:10531000022384F84D30EEE7637BE16901220092BD
:1053200082B2284603F029FCF2E7617B03F0BCFD62
:10533000012805D00228DED1012384F84D30DAE7B8
:10534000636A228B93420AD99B1A6362E36913440E
:10535000E361636A33B1012384F84D30CBE7002366
:105360006362F6E7002384F84D302846FFF7B6FF66
:10537000C1E7704738B50446D0F84C35DD6995F87B
:105380004E30032B02D0042B09D038BD2B7B6A8B07
:10539000296A03F008FC042385F84E30F5E7297BE1
:1053A00003F082FD0128F0D1297B204603F076FD31
:1053B000AB6A83420BD06A8B824208D21B1AAB6263
:1053C0002B6A18442862032385F84E30DDE700235A
:1053D00085F84E302046FFF7CCFFD6E7704770B512
:1053E0000446D0F84C35DE6996F84C50042D04D8AC
:1053F000DFE805F03F0513394100012539E0B16CC4
:10540000FFF70EFE18B9022386F84C3031E0012870
:105410003AD0042386F84C302BE006F14001FFF728
:105420000CFE0546C0B9002386F84C30736C23F09F
:105430007F42B16C4B6823F07F439A4201D0012533
:1054400017E0326C0B689A4201D0012511E020462A
:10545000FFF7C4FF01250CE001280AD0042386F8D9
:105460004C30012505E0FFF73AFF2046FFF782FFA9
:105470000125284670BD002103F036FB30B900231A
:1054800086F84C300125F4E70546F2E70125F0E700
:10549000D0F84C35DB699A78062A01D00020704795
:1054A000D0F89425196A521A998B8A42F6D30422AD
:1054B0009A70F3E730B583B08C78CB7844EA032454
:1054C000092C23D9054608460923ADF80630BDF856
:1054D0000630A3421AD20DF1060103F07FF943789A
:1054E000212BF4D103782B7043786B708378C278CA
:1054F00043EA02236B8003792B7143796B718379C3
:10550000AB71C379027A43EA02232B8103B030BD29
:1055100038B50446D0F84C35DD69697869B9297821
:10552000A1B9D4F84C35D86928B103F07BFDD4F883
:105530004C350022DA61002038BD03F088FB697821
:10554000204603F09DFB00236B70E8E7204603F044
:105550007EFB2978204603F093FB00232B70E0E7C5
:105560002DE9F04385B00446D0F84C15FF23012205
:10557000097902F02FFD09284AD80746014620463E
:1055800002F0E4FC8146002840F0B180D4F84C558C
:10559000342003F03FFDE861D4F84C35DD69002D7F
:1055A00045D034220021284603F0F4FF0723AB70D6
:1055B000322303FB074393F84933012B43D0022BDB
:1055C0004AD14E4804F044F80A2004F055F84C4BF8
:1055D0002B630023AB706B71322303FB074393F8FB
:1055E0004E23AA76B3F850232A8393F85233AB8321
:1055F000092B01D80A23AB83322303FB074393F81B
:105600004683B8F1050F28BF4FF005084E4646E027
:105610003C4804F01DF8D4F84C3519683A4804F0B9
:1056200017F80A2004F028F84FF0020961E0354825
:1056300004F00EF8354804F00BF80A2004F01CF8CA
:105640004FF0020955E0324804F002F80A2004F055
:1056500013F8304B2B63BCE72F4803F0F9FF0A2007
:1056600004F00AF84FF0020943E02971204603F0E4
:10567000F3FA014668702A792B8B02930323019376
:1056800094F81D33009394F81C33204603F0CFFAAE
:1056900000226978204603F013FC0136F6B2464535
:1056A00027D2731C322207FB02F202EBC30323440E
:1056B00093F8461393F94633002BD6DBE970204666
:1056C00003F0CAFA01462870EA782B8B0293032371
:1056D000019394F81D33009394F81C33204603F093
:1056E000A6FA00222978204603F0EAFBD5E74FF01E
:1056F0000209484605B0BDE8F08300BF68F2000823
:10570000455A000888F00008C8F0000828F2000890
:1057100050F20008E55900087CF2000800B583B09B
:10572000009100F58E734FF40852012103F030F917
:1057300003B05DF804FB08B54FF0210C80F810C0F1
:105740004FF00A0C80F811C042EA01224282002187
:105750008182C1820A4603F0FBF808BD08B54FF00C
:10576000A10E80F810E04FF0010E80F811E042EA3F
:1057700001224282002282829DF80820C2821946BC
:1057800003F0E6F808BD08B5212303740B23437426
:1057900041B10023438200218182C1820A4603F085
:1057A000D7F808BD01234382F5E7000070B5054630
:1057B000D0F84C35DE697479052C52D8DFE804F056
:1057C00003510E03243500F11C0106F12600FFF7FA
:1057D00071FE022373710124204670BDF18DFFF725
:1057E0009DFF18B9042373710124F5E7032801D044
:1057F0000124F1E71C4803F02BFF1C4803F028FFAD
:105800000A2003F039FFE7E700221146FFF793FF74
:1058100018B9052373710124DEE7032801D00124A0
:10582000DAE7052373710124D6E70021FFF7ABFF08
:10583000044638B901237371D5F8A43502212846EE
:105840009847C9E7032801D00124C5E7064803F0BB
:10585000FFFE074803F0FCFE0A2003F00DFF0224C0
:10586000BAE70124B8E700BF44F0000894F200084A
:10587000D4F2000800238380C38083720281016018
:10588000704703468C46817A59BB01218172002002
:10589000904226D230B507E084B900229A721FE008
:1058A000013080B2904218D2B3F804E00EF1010149
:1058B000DC88A142F1D01D89A942EDD019681CF8FD
:1058C000014B01F80E409988013189B299801C89F9
:1058D000A142E5D100219980E2E7002199721046AA
:1058E00030BD002199721046704770B582B00546F0
:1058F000D0F84C35DE69B478062C6BD8DFE804F0BC
:10590000040B6A6A30273E00336B98470123B3705B
:10591000204602B070BD7369327E009200220121E0
:10592000FFF71CFF044610B90523B370F0E7012808
:1059300005D0032807D00723B3700224E8E701232A
:10594000B3700024E4E70523B3700024E0E7D0F847
:10595000943513F0010F3FD00423B3700024D7E730
:105960007378327E716903F02EF90623B370D5F88F
:1059700094353362002486F82440C9E7717803F037
:1059800093FA012807D07178284603F08DFA05288C
:1059900017D00024BCE77178284603F07FFA96F808
:1059A0002440DCB90028B3D0328B716906F10800BD
:1059B000FFF767FF012386F824302846FBF79CFC9D
:1059C000A6E7B17E284603F08FF8044640B90423C9
:1059D000B3709DE700249BE7002499E7002497E734
:1059E000002495E710B5D0F84C35DC69124A002345
:1059F00053709370D370137153719371D371137289
:105A000007E000220D4941F823200D4941F82320E9
:105A10000133012BF5D9238B082B01D908232383CC
:105A2000074B6361502200F58E7104F10800FFF707
:105A300021FF002010BD00BFB00B0020C00B0020D4
:105A4000C80B002010B5D0F84C35DC69104A002393
:105A5000137053709370D370137107E000220D49D7
:105A600041F823200C4941F823200133012BF5D9BB
:105A7000238B082B01D908232383074B6361502212
:105A800000F58E7104F10800FFF7F4FE002010BD50
:105A9000D00B0020D80B0020E00B00200020704726
:105AA00070B5D0F84C35DE69337B23B1012B40F063
:105AB000F581002070BD0446B6F8F810337899429D
:105AC00080F0E181342303FB0163012283F89120FC
:105AD00093F89030082B00F2E381DFE813F009001F
:105AE000E1017400DE001D004501E101E101CF018B
:105AF000D64803F0ADFD0A2003F0BEFDB6F8F8303D
